:020000040800F2
:1000000000200020C13300086D1900087119000894
:1000100000000000000000000000000000000000E0
:10002000000000000000000000000000751900083A
:100030000000000000000000791900087D19000888
:1000400011340008000000001134000811340008C9
:100050001134000811340008113400088519000813
:1000600000000000113400081134000811340008A9
:100070001134000811340008113400080000000099
:100080001134000811340008000000001134000889
:10009000113400081134000811340008113400082C
:1000A000113400081134000811340008113400081C
:1000B00011340008000000000000000000000000F3
:1000C00010B5064C2378002B07D1054B002B02D02E
:1000D000044800E000BF0123237010BD0C00002085
:1000E0000000000084340008084B10B5002B03D03A
:1000F0000749084800E000BF07480368002B00D10B
:1001000010BD064B002BFBD09847F9E7000000001C
:1001100010000020843400080C00002000000000C3
:10012000002243088B4274D303098B425FD3030A36
:100130008B4244D3030B8B4228D3030C8B420DD349
:10014000FF22090212BA030C8B4202D312120902D7
:1001500065D0030B8B4219D300E0090AC30B8B4215
:1001600001D3CB03C01A5241830B8B4201D38B03C3
:10017000C01A5241430B8B4201D34B03C01A524168
:10018000030B8B4201D30B03C01A5241C30A8B42AB
:1001900001D3CB02C01A5241830A8B4201D38B0296
:1001A000C01A5241430A8B4201D34B02C01A52413A
:1001B000030A8B4201D30B02C01A5241CDD2C309AC
:1001C0008B4201D3CB01C01A524183098B4201D328
:1001D0008B01C01A524143098B4201D34B01C01A13
:1001E000524103098B4201D30B01C01A5241C3088B
:1001F0008B4201D3CB00C01A524183088B4201D3FA
:100200008B00C01A524143088B4201D34B00C01AE5
:100210005241411A00D20146524110467047FFE751
:1002200001B5002000F006F802BDC0460029F7D055
:1002300076E770477047C0468446101C62468C467D
:10024000191C634600E0C0461FB500F00BFC0028F7
:1002500001D40021C8421FBD10B500F05FFB404231
:10026000013010BD10B500F0FDFB002801DB0020BF
:1002700010BD012010BDC04610B500F0F3FB0028F2
:1002800001DD002010BD012010BDC04610B500F0FA
:1002900085FB002801DC002010BD012010BDC046F8
:1002A00010B500F07BFB002801DA002010BD012012
:1002B00010BDC04670B500220C4B04000D00FFF7C6
:1002C000EFFF002804D12000290001F003FA70BDDF
:1002D000064B00222000290000F0A8FE01F0FAF9E8
:1002E00080231B069C466044F1E7C0460000E041C5
:1002F000F0B556464D4644465F46F0B41D000E0329
:100300004C00CB0F87B0070092468146360B640D38
:1003100098466AD06D4B9C4235D08022430F120420
:100320001343F6001E43C3009946694B00279C46C1
:100330000023644402932B0368001B0BED0F51460E
:100340009B46400D009500D178E0604B98426CD000
:100350005B46DA004B0F802109040B4313439B4695
:100360005346D9005A4B9C46002360444246201A0B
:100370006A40924601901F430F2F00D9B0E05548C4
:10038000BF00C0598746374300D088E00023994614
:100390000233082700260293CDE74346B346494679
:1003A0000093029B009A9246022B00D0BFE10021ED
:1003B00053460122002689461A40444B0021360349
:1003C0000C0D2405360B2643434C1B0526401E43CB
:1003D0007600D207760816434846310007B03CBC89
:1003E00090469946A246AB46F0BD330003434FD03A
:1003F000002E00D1BCE1300001F01CFA03000B3BE1
:100400001C2B00DDADE11D220100D31A08393A0092
:100410008F408E40DA40B9461643304B00279C4649
:10042000002360444442029385E753465A461343EF
:100430002CD1002300219B46023397E70B4320D0A9
:100440005B46002B00D19EE1584601F0F3F9030012
:100450000B3B1C2B00DD8FE102005946083A91400E
:100460008B461D21CB1A5146D9400B0059460B43F0
:1004700051469B469140194B9C46604440420023A4
:1004800074E7002300219B4601336FE703236DE7E8
:100490000023994601330427002602934BE70323E8
:1004A0000C27029347E70122D51A382D00DCB0E172
:1004B00053461A4000210023002689467EE7002388
:1004C0008026994600223603004B77E7FF0700009D
:1004D00001FCFFFFBC340008FFFF0F80F3030000A6
:1004E0005E4500D972E100D16DE1019B4D46013BB3
:1004F00001930023340002935B461E020B0E1E4341
:100500000B020393330C994633041B0C494620001D
:100510000093FFF705FE009B370043430600494662
:1005200020009846FFF782FE2C0C09040C43A045DE
:1005300009D9E419731EA74200D95CE1A04500D88F
:1005400059E1023EE4194346E41A49462000FFF708
:10055000E7FD0300009A80465343494620009B462E
:10056000FFF764FE2A040904120C0A4393450DD9CF
:100570004346D219013B974200D93AE1934500D84E
:1005800037E102235B429C46D219E0445B46D21A13
:100590004346360433439B460399180C0B0C1D004D
:1005A000059309045B46090C0C001B041B0C444317
:1005B000049159436B4368431B190D0CEB189C4283
:1005C00003D980246402A44660441C0C09041B0463
:1005D000090C20185D18824200D2DEE000D1D7E07D
:1005E000161A029B9C465D1BAC459B415B42F61A6A
:1005F000B74200D106E149463000FFF791FD009B6C
:1006000004004343494630009846FFF70FFE2E0C86
:1006100009040E43B04509D9F619631EB74200D943
:10062000F3E0B04500D8F0E0023CF6194346F31A77
:10063000494618000293FFF773FD009B06004343F1
:10064000494602989846FFF7F1FD2D0409042D0C48
:100650000D43A84509D9ED19731EAF4200D9D6E064
:10066000A84500D8D3E0023EED19240421004346FA
:100670003143049E059A3000ED1A0B040C0C1B0C40
:1006800058436643534354439A19030C9B189E42A4
:1006900003D980225202944664441A0C00041B04BD
:1006A000000C14191B18A54250D34DD00123194337
:1006B000964A019B94466344002B00DCF3E64A070C
:1006C00009D00F220A40042A05D00A1D8A42894116
:1006D00049428B4411005A46D20108D55A468C4BE8
:1006E0001A4093468022D2009446019B6344894A73
:1006F000934200DD5BE65A46C9085007084356029C
:10070000514601225B058146360B5B0D0A4055E6DA
:1007100080231B031E4211D05A461A420ED15E4658
:100720001E433603360B2A0089467B4B46E6032BD5
:1007300000D1E1E0012BBBD11A40BBE61E433603DA
:10074000360B4246744B39E6002BB1D07D194A1E58
:10075000AF4252D91100A542A8D1039A9A42A5D11D
:10076000A6E703003E00283B9E400023994654E63E
:1007700001F060F8203041E603005246283B9A40E1
:100780000021934677E6504601F054F820305EE6AB
:10079000029B0026AB4200D323E7039E0299B44696
:1007A00061448846B045B6415B467642F619B218B8
:1007B000013B0291974213D290424FD800D18EE074
:1007C000161A9B460DE7894500D28EE674084B4603
:1007D000F60735005B081D434B46DB0702938BE6AB
:1007E0009742EDD10399029CA142E5D93E1A9B465E
:1007F000F7E69846CAE61E00A5E6AC423ED874D09D
:10080000110053E70121494252E71C000EE71E0088
:100810002BE71F2D3CDC20230A0058465B1B984029
:10082000EA4099400243481E81415E461143EE4032
:100830004B0709D00F230B40042B05D00B00191DCB
:1008400099429B415B42F61833023CD55346012244
:1008500000211A40002601238946AFE502235B42AE
:100860009C46039CE344A446029B63449846A045EF
:10087000B6417642F6190293B218B1E603988A1E81
:1008800041008142B6417642F619AD19039161E704
:100890001F225242D31A5A46DA401300202D29D083
:1008A00040225846551BA8400143481E814107205D
:1008B0000B4318400026002809D00F2200261A40BA
:1008C0001900042ABBD10B0070077602360BDB0837
:1008D00003439946012253461A4000236EE50299CC
:1008E0008D42BBD89B4600267BE603989842C5D331
:1008F000110032E70020D7E780265B4636031E430F
:100900003603360B009A8946034B57E5FF03000078
:10091000FFFFFFFEFE070000FF070000F0B55F4687
:1009200056464D464446F0B41F035C00DB0F9A4622
:10093000194B0E034D00C90F8046360B6D0D8B46CB
:1009400091463F0B640D9D4219D0134B9C421BD026
:100950000123A54206D018003CBC90469946A24609
:10096000AB46F0BDBE42F6D1C845F4D1D34510D058
:10097000002DF0D1304303005A1E9341EBE73100C4
:1009800001230143E7D1E0E73A430123002AE2D102
:10099000DEE70023DFE7C046FF070000F0B55F4653
:1009A000444656464D46F0B41F033C0B2C4F0E03F5
:1009B0004D00A3465C008446360B6D0DC90F904672
:1009C000640DDB0FBD422BD0254FBC422ED0002D35
:1009D0000ED130430700814678427841002C17D170
:1009E0005F463A4314D14B460020002B0AD006E064
:1009F000002C02D15846024301D099421AD001235B
:100A0000484218433CBC90469946A246AB46F0BDCE
:100A10000028F2D058425841012240421043F1E7E9
:100A200037000743D0D002204042EBE75F46174330
:100A3000CDD0F8E7A542E2DC05DB5E45DFD808D083
:100A400000205E45DED2484248410123404218431F
:100A5000D8E7C445D3D80020C445F4D3D2E7C04674
:100A6000FF070000F0B55F464D4644465646F0B4D9
:100A70001C03240BA4462F4C0F034D005E00C90F2E
:100A800080463F0B6D0D8B469146760DDB0FA542E0
:100A900020D0284CA64222D0002D12D13843444207
:100AA0004441002E20D0002C0DD05C426341012433
:100AB0005B421C4320003CBC90469946A246AB4694
:100AC000F0BD002E17D05B4519D05B465C42012378
:100AD0001C43EFE7390002240143EBD1D9E761461B
:100AE00002241143E6D1D7E761460A43DBD1002453
:100AF0000028DFD0E9E761460A43E4D1E5E7B542E3
:100B000003DD01225C421443D4E7B542CDDB6745E7
:100B1000DBD809D000246745CCD259464C4261410C
:100B2000012449420C43C5E7C845CED80024C84536
:100B3000F3D3BFE7FF070000F0B55F4656464D46CA
:100B40004446F0B40D0399464E002B0B87B00700C6
:100B5000924680469B46760DCC0F002E69D06D4B99
:100B60009E4235D05B468022DD001204430F1343C2
:100B70002B439B46C3009846674B00279C460023A7
:100B8000664401934A4615035000D20F53462D0B7D
:100B9000400D914600D176E05E4A90426CD08022B2
:100BA0005B0F120413435C4AED0094461D43534609
:100BB0000022DB00604449463618701C61400290F8
:100BC00017430F2F00D9AFE05448BF00C759BF46A5
:100BD0005B461F4300D088E000239B4698460233C3
:100BE00008270193CEE74946022A6AD0032A00D19A
:100BF00009E2012A00D0BBE11140002200230025B8
:100C00009046CCB200212D030A0D12052D0B154381
:100C1000434A1B0515401D436D00E4076D0825433D
:100C20004046290007B03CBC90469946A246AB46D8
:100C3000F0BD034352D05B46002B00D18AE15846F9
:100C400000F0F8FD03000B3B1C2B00DD7BE11D22B7
:100C5000D31A3A0001005D46DA4008398D4013008E
:100C60008F402B439B46B8462E4B00279C460023C3
:100C700060444642019385E752462A432CD1002521
:100C80000023022297E752462A4321D0002D00D1AB
:100C900054E1280000F0CEFD03000B3B1C2B00DDCF
:100CA00046E11D21CB1A51460200D9405346083A6D
:100CB000954093400D431B4A9446604440420022B5
:100CC00079E7012400220C40124B0025904699E759
:100CD0000025002301226EE703226CE700239B46D8
:100CE00098460133042701934CE703230C27019313
:100CF00048E700238025984600242D03054B81E713
:100D00005D464346019A6FE75D4643462100019ADE
:100D10006AE7C046FF07000001FCFFFFFC34000843
:100D2000FFFF0F80F30300004246120C91461A0C9D
:100D30009446424617044A461B041B0C5A4360461D
:100D400090464A4642431000039262461C003F0C04
:100D50007A437C4342440192220C9246019A5244C7
:100D6000904506D98246802040028046C2445046C3
:100D70000390100C049048462404240C1204121909
:100D800005922A0C2D042D0C68432C0082464846FF
:100D90007C4350438146200C804657435744474488
:100DA000BA4503D9802040028046C144380C3F0434
:100DB000B84648442404240C01900498A0444044BC
:100DC00004905846000C814658460404200C824684
:100DD000070048465F434C464343604660436446D1
:100DE000834650464443380C8446E4186444A34286
:100DF00003D980235B029C46E34448463F04230C0E
:100E00003F0C2404E419574668436F4384464D461B
:100E1000504655434243380C814662444A445B4441
:100E2000944503D9802040028446654403983F04DA
:100E3000834604983F0C8446E344C34580414042C6
:100E40008246100484460198674484466744A3445C
:100E5000BC46A345A4419946D44464428742BF415D
:100E6000D4458041E144A04699459B417F424042A0
:100E7000C8440743120CBA18A045A4415F423B0086
:100E800064422343D71843467D19DB0D6D021D4391
:100E90005B465A02059B1A43531E9A415B46DB0D83
:100EA0001A4343465B021343EA0107D501225C085B
:100EB00013402343EA07029E13436D08574AB218B2
:100EC000002A4BDD580709D00F201840042805D010
:100ED000181D98429B415B42ED180300E80104D5C0
:100EE0004F4A15408022D200B2184E48824200DD9F
:100EF000E7E60124DB08680718436D0253058046C6
:100F00002D0B5B0D0C407DE68022594612031142E9
:100F100008D0154206D115432D0398462D0B4C469B
:100F2000414B6FE65D4615432D032D0B3E4B69E6A5
:100F300003005546283B9D400023BCE6504600F088
:100F400079FC2030A8E60300283B9F400023BB46E5
:100F5000984689E600F06EFC203073E60124A61A5C
:100F6000382E07DD00220C4000230025904649E67C
:100F7000029EA3E71F2E20DC20222C001800921BCB
:100F8000F040944093400443581E83411C43F54075
:100F9000630709D00F232340042B05D023001C1D19
:100FA0009C4292415242AD182B021FD501240022CF
:100FB0000C4001230025904624E61F202C004042CF
:100FC000821AD440202E1CD04022961BB5402B43C1
:100FD000581E83410720234318400025002809D0CC
:100FE0000F2200251A401C00042AD8D123006807CC
:100FF0006D022D0B0124DB08034398460C400023AF
:1010000000E60025E3E780220124120315432D03A7
:1010100098462D0B0C40044BF4E5C046FF0300003E
:10102000FFFFFFFEFE070000FF070000F0B5574678
:101030004E464546E0B40E001100F20F9246C50040
:10104000420F180337037400400A4E0F7F0A3043E3
:10105000CF4E17435A00640D520DDB0FC900B24248
:1010600000D1E5E001267340A61AB446534500D1ED
:10107000AFE0002E00DC0DE1002A3AD103000B4363
:1010800000D0E4E06B0709D00F232B40042B05D0E0
:101090002B1DAB42AD416D427F191D003B0200D4B8
:1010A00088E0BB4B01349C4200D110E13A00B94BBF
:1010B00051461A4001235007ED08520264050543CA
:1010C000120B640D0B400021280012030D0D120BB2
:1010D00064052D0515436208AF4CDB072C40144313
:1010E000640064081C4321001CBC90469946A2463B
:1010F000F0BDA74B9C42C5D080231B041843634618
:10110000382B00DDFDE01F2B00DD30E1624620239F
:101110009B1A02009A40664690460A009940F240A7
:1011200046464B1E99413243114363460200DA4062
:10113000691A8D429B410D00BA1A5B42D71A3B02D5
:1011400035D57A02530A98464346002B00D1C4E0B5
:10115000404600F06FFB0300083B1F2B00DDC5E09D
:1011600020222900D21A4746D1409F400A009D40C4
:101170003A439C4200DDC0E01C1B631C1F2B00DDBA
:10118000E4E0202114002800C91AD8408C408D408A
:101190000443DA40681E854117002543002471E7A7
:1011A000424663461A4300D14CE2674645466B0708
:1011B00000D069E7012351467807ED08FA080B4093
:1011C000054373498C4238D012036405120B640D39
:1011D00079E7002E00DC9AE0002A47D06C4A94425E
:1011E00000D14FE78022120410436246382A00DC07
:1011F00008E10143481E81410022C9B24919D219B0
:10120000A942BF410D007F42BF183A0200D442E11B
:101210005F4A0134944200D14EE101205D4A6908E1
:101220003A4028400843D507054357089A4629E71E
:1012300006000E4300D017E714E72900114300D140
:10124000F9E1802109030A431203120B3BE7012352
:101250005B429846C4446346002B72D1691A8D42A2
:101260009B413F1A5B42FF1A0D0068E702000A43E8
:1012700000D107E7012252429046C4446246002A48
:1012800000D0E6E06918A942B6413F187642F71946
:101290000D00BAE7002E00D080E0621C5205520D0E
:1012A000012A00DCF9E06A1A91464D45B6413A1A26
:1012B0007642921B9046120200D499E04D1BA9423F
:1012C0008941C71B49427A1A90469A463CE75246E2
:1012D0000123002513400022F5E6280000F0AAFAB9
:1012E00020300300083B1F2B00DC39E72A00283898
:1012F000824000259C4200DC3EE7264FE41A17405E
:10130000C0E60143481E81410022C9B210E7002E09
:1013100000D0F1E0621C94465205520D012A00DC17
:10132000A0E01B4A944500D1C5E06918A94292414A
:101330003F185242D2194908D5070D435708644651
:10134000A0E6134B9C4200D0D9E69BE611001F3C5F
:10135000E1400C00202B00D180E04021CB1A9A40C4
:1013600015436A1E95410027254300241FE7634665
:101370000200203BDA406346202B71D040236646B2
:101380009B1B98400143481E814111430022CFE638
:10139000FF070000FFFF7FFFFFFF0F80002C48D0FA
:1013A000CA4CA24200D1A2E07442A1468024240487
:1013B00027434C46382C00DDDBE01F2C00DD44E1E8
:1013C0004E462024A41B3E00A640A246B0464C46F2
:1013D0002E00E640B4464646644626435446A540A1
:1013E0006C1EA54134002C434D46EF400D1B28E0F8
:1013F0004A4643464D461A4300D0A5E60023002442
:101400000025DEE61F2A5ADC66462022921B0600D3
:1014100096409146B04662460E00D640424616437C
:101420004A4691404A1E9141020060463143C24003
:10143000E4E63C002C435AD0F443A146002C52D1A0
:101440004D1BA9428941C71B49427F1A14009A4685
:1014500075E69E4A944200D0C7E613E600227FE775
:1014600000208FE7002C00D0C8E03B002B4300D1C8
:101470000FE103000B4300D104E66918A9429B4128
:101480003F185B42DF193B0200D41AE1904B0D007C
:101490001F406446F6E59A4689E63A002A43002C46
:1014A0005CD1002A75D102000A4300D1CAE00700CE
:1014B0000D009A46E6E564460022002581E6624674
:1014C0000600203AD6406246B046202A00D1B7E056
:1014D00040226646921B904001434246481E81418D
:1014E000114300228AE6794CA24200D061E707004E
:1014F0000D0014009A46C5E5002C41D13C002C4358
:1015000078D0F443A146002C20D0704CA24271D078
:101510004C46382C00DDB2E01F2C00DDBCE020265C
:10152000341BA2463C005646B4404E46A0462C0012
:10153000F440A446444666463443A4465446A54077
:1015400064466E1EB54125434C46E7406D188D42FA
:1015500089413F184942CF19140056E6002A2FD17D
:1015600002000A4300D184E007000D009A46574C60
:1015700088E53D436F1EBD41ECB200270D1B60E7BF
:10158000524CA24236D0744280263604A1463743DC
:10159000BEE702000A4300D174E56A1A9046454549
:1015A000B6413A1A7642921B9446120200D4F7E5ED
:1015B0004D1BA9428941C71B49427F1A9A4661E5E2
:1015C00002000A433AD0ED087C072C438025FA0834
:1015D0002D032A4208D0C7082F4205D145072C0009
:1015E0003A009A46C9080C43670FD200E50017433A
:1015F000364C47E507000D00140043E53A002A4346
:1016000043D002000A4319D0ED087C072C43802503
:10161000FA082D032A4207D0C6082E4204D14707F4
:101620003C003200C9080C43D700620FE5001743A5
:101630009A46264C26E50022002544E5234C21E568
:10164000002049E700230025BBE54C463E00203C36
:10165000E6404C46B446202C31D040244E46A61BD2
:10166000B7403D436C1EA54164462C4300270D1B2B
:10167000E7E6802200231203144C0025A1E53D4338
:101680006F1EBD410027EDB260E707000D000F4C53
:10169000F8E407000D00F5E44E463C00203EF4401F
:1016A000A0464C46202C0ED040244E46A41BA740FA
:1016B0003D436F1EBD4144460027254346E70027B2
:1016C000CFE70D0073E50027F2E7C046FF070000F3
:1016D000FFFF7FFF0B0330B5134D1A0B4B005B0D63
:1016E000C90F0024AB4211DD104CA34210DC802452
:1016F000640322430E4CE41A1F2C0CDD0D48C31A60
:10170000DA4013005C42002900D11C00200030BDEB
:10171000094BCC18FAE7E040084CA44663449A40D1
:1017200013000343EEE7C046FE0300001D04000063
:101730003304000013040000FFFFFF7FEDFBFFFFF9
:1017400070B5002830D0C317C4185C40C50F200006
:1017500000F070F8174B184A1B1AD21A1F2A18DD0E
:10176000164AD21A9440002224035B05240B5B0D19
:101770000021100024030A0D1205240B1443104A03
:101780001B0514401C436400ED0764082C43210032
:1017900070BD210091400A000B21081AC4405B056E
:1017A0002403240B5B0DE3E7002500230024002223
:1017B000DEE7C0461E0400003304000013040000EE
:1017C000FFFF0F8070B5051E28D000F033F8154BD1
:1017D000154A1B1AD21A1F2A16DD2C00134A00259F
:1017E000D21A94405A052403240B520D00212403DD
:1017F0000B0D240B1B0523430D4C120523401343F3
:101800005B002800590870BD0B212C00081AC44049
:10181000954024035A05240B520DE7E700220024CB
:10182000E4E7C0461E040000330400001304000077
:10183000FFFF0F801C2101231B04984201D3000CE1
:1018400010391B0A984201D3000A08391B09984233
:1018500001D30009043902A2105C40187047C04649
:101860000403020201010101000000000000000069
:1018700070B580256D009024E40501222900200028
:1018800001F048F8C82000F01BFC002229002000CD
:1018900001F040F8C82000F013FC012229002000CC
:1018A00001F038F8C82000F00BFC70BD00B591B015
:1018B0003022002104A801F0DCFD1022002168463E
:1018C00001F0D7FD01230493059301330C9380238A
:1018D0005B020D9380235B030E9304A800F06CF869
:1018E000002801D0FFF7C4FF07230093053B0193B5
:1018F0000023029303930121684600F0FFFA0028B9
:1019000001D0FFF7B5FF00F0BBFA11B000BDC04633
:1019100010B582B000F0B2FBFFF7C8FF01F07EF80F
:1019200001F01AF901F07EFB012400940C230D4A0A
:101930000021002001F004FB01F0F6F901F03EFC6B
:10194000020001940C230093023B1421002001F0BB
:1019500021FB01F0E9F9044800F0B2FB01F022FAA2
:10196000E2E7C0463C350008DC0500007047C04691
:10197000FEE7C0467047C0467047C04610B500F04D
:101980008DFB10BD7047C04682B00A4B996901209B
:10199000014399619A6902400092009AD9698022B4
:1019A00052051143D961DB691A400192019B02B0D3
:1019B0007047C0460010024070B582B0041E00D1CE
:1019C0002BE20368DB0763D5C44B5B680C22134032
:1019D000042B08D0C14B5B681340082B0BD1BF4BC5
:1019E0005B68DB0307D5BD4B1B689B0350D5636861
:1019F000002B4DD113E26368012B06D1B74A13685F
:101A0000802149020B43136022E0002B09D1B34B24
:101A10001968B34A0A401A601968B24A0A401A6043
:101A200016E0052B0BD1AD4B1A688021C9020A4381
:101A30001A601A68802149020A431A6008E0A74B1D
:101A40001968A74A0A401A601968A64A0A401A602B
:101A50006368002B0ED000F02DFB050005E000F0C0
:101A600029FB401B642800D9DBE19C4B1B689B03CE
:101A7000F5D50DE000F01EFB050005E000F01AFBB7
:101A8000401B642800D9CEE1944B1B689B03F5D41E
:101A900023689B0750D5914B5B680C221A4208D0F3
:101AA0008E4B5B681340082B14D18C4B5B68DB03B7
:101AB00010D48A4B1B689B0703D5E368012B00D029
:101AC000B3E186490B68F82293432269D20013439D
:101AD0000B6031E0E368002B1BD0804A11680123C2
:101AE0000B43136000F0E6FA050005E000F0E2FAAF
:101AF000401B022800D99AE1784B1B689B07F5D55B
:101B000076490B68F82293432269D20013430B6095
:101B100012E0724A136801218B43136000F0CAFA85
:101B2000050005E000F0C6FA401B022800D980E15C
:101B30006A4B1B689B07F5D423681B0729D5E3690B
:101B4000002B13D0654A516A01230B43536200F006
:101B5000B1FA050005E000F0ADFA401B022800D9FB
:101B600069E15E4B5B6A9B07F5D512E05B4A536AFD
:101B700001218B43536200F09DFA050005E000F05F
:101B800099FA401B022800D957E1544B5B6A9B0726
:101B9000F5D423685B077AD5504BDB69DB000BD4A7
:101BA0004E4AD16980235B051943D161D269134044
:101BB0000193019B012500E000254B4B1B68DB05D1
:101BC00013D4494A1368802149000B43136000F085
:101BD00071FA060005E000F06DFA801B642800D958
:101BE0002DE1414B1B68DB05F5D5A368012B04D122
:101BF0003A4A116A0B43136220E0002B09D1374B9C
:101C00001A6A01218A431A621A6A03318A431A62E4
:101C100014E0052B09D1314B196A04220A431A62D8
:101C2000196A01220A431A6208E02C4B1A6A012140
:101C30008A431A621A6A03318A431A62A368002B24
:101C40000FD000F037FA060006E000F033FA801BF0
:101C5000264B984200D9F4E0204B1B6A9B07F4D531
:101C60000EE000F027FA060006E000F023FA801BE1
:101C70001E4B984200D9E6E0184B1B6A9B07F4D430
:101C8000012D04D1154AD169194B0B40D36123684A
:101C9000DB0655D56369012B2CD1104B596B0422FF
:101CA0000A435A63596B01220A435A6300F002FA4D
:101CB000050005E000F0FEF9401B022800D9C4E051
:101CC000064B5B6B9B07F5D504494B6BF82293439E
:101CD0001A00A369DB0013434B6331E0001002409C
:101CE000FFFFFEFFFFFFFBFF0070004088130000B6
:101CF000FFFFFFEF05330CD15E494B6B042293438A
:101D00004B634B6BF4329343A269D20013434B6392
:101D100016E0584B596B04220A435A635A6B01214F
:101D20008A435A6300F0C6F9050005E000F0C2F9E5
:101D3000401B022800D98AE04E4B5B6B9B07F5D411
:101D4000236A002B00D184E04A4A52680C210A40E1
:101D5000082A4AD0022B34D1464A1168464B0B4020
:101D6000136000F0A7F9050004E000F0A3F9401BA0
:101D7000022870D83F4B1B689B01F6D43D4BDA6AB2
:101D80000F218A43E16A0A43DA6258683B4A1040ED
:101D9000A26A616A0A4302435A601A6880214904B0
:101DA0000A431A6000F086F9040004E000F082F9AA
:101DB000001B022851D82F4B1B689B01F6D5002031
:101DC00056E02C4A11682C4B0B40136000F072F95E
:101DD000040004E000F06EF9001B02283FD8254BF8
:101DE0001B689B01F6D4002042E0012B39D0214B27
:101DF0005A68D96A80235B021340606A834232D1F9
:101E00000F231940E36A99422FD1F0239B031A4014
:101E1000A36A9A422BD001202AE0012028E0012069
:101E200026E0032024E0032022E0012020E003201C
:101E30001EE003201CE003201AE0032018E003202A
:101E400016E0032014E0032012E0032010E003203A
:101E50000EE000200CE003200AE0032008E003204D
:101E600006E0012004E0012002E0012000E0002063
:101E700002B070BD00100240FFFFFFFEFFFFC2FF77
:101E8000034A1368802109030B4313607047C0465F
:101E90000010024010B588B0144C1022210004A894
:101EA00001F0DEFA210010311022684601F0D8FA64
:101EB0000F4B5A680C231340082B13D1910C0F20A1
:101EC000014004AB5C5C0A4BDB6A03406946C95CB9
:101ED000D30304D50748FEF723F9604303E006481F
:101EE000604300E0034808B010BDC0469C340008C1
:101EF0000010024000127A0000093D0070B5040095
:101F00000D0000287AD0444B1B68012213408B42FD
:101F100009D2414A136801218B432B431360136894
:101F20000B409D426CD123689A070ED55B0705D5FF
:101F30003A4A5368E021C9000B435360374A53685B
:101F4000F0218B43A1680B4353602368DB072AD53C
:101F50006268012A04D1314B1B689B030BD451E00A
:101F6000022A04D12D4B1B689B0104D44CE02B4B5F
:101F70001B689B074AD529494B68032083431343B9
:101F80004B6000F097F8060005E000F093F8801B26
:101F9000234B98423CD8214B5B680C221A40636863
:101FA0009B009A42F1D11C4B1B68012213409D42B9
:101FB00009D2194A136801218B432B43136013681C
:101FC0000B409D4226D123685B0706D513494A681A
:101FD000144B1340E26813434B60FFF75BFF0F4B5A
:101FE0005B681B090F2213400F4AD35CD8400F4B8C
:101FF0001860002000F01CF800200CE001200AE02E
:10200000012008E0012006E0012004E0012002E0B8
:10201000032000E0012070BD0020024000100240BB
:1020200088130000FFF8FFFF443500080800002077
:1020300010B504000E4B1978FA208000FEF770F8F6
:1020400001000C4B1868FEF76BF800F09BFC0028B1
:102050000AD1032C0AD800222100013800F060FCCC
:10206000054B1C60002002E0012000E0012010BDB3
:1020700004000020080000200000002010B5064ADF
:10208000116810230B4313600020FFF7D1FFFFF707
:102090007BFC002010BDC04600200240034A1368AC
:1020A00003490978CB1813607047C0462800002008
:1020B00004000020014B18687047C046280000202B
:1020C00070B50400FFF7F6FF0500631C02D0044B57
:1020D0001B78E418FFF7EEFF401B8442FAD870BD6E
:1020E0000400002003689A69920701D500229A62D1
:1020F00003689A69D20703D4996901220A439A6155
:102100007047C046F0B51C00059D066873686F0DEA
:102110008020C0003840064F3843834318008B05A9
:102120009B0D1204134323432B4303437360F0BD01
:10213000FF63FF0370B504000E00150003689A6981
:10214000D2063CD55A6892011BD45A688021C90135
:102150000A435A6015E0731C13D0FFF7ABFF401B16
:10216000864201D3002E0CD1636C2022134363649A
:102170004123E25400232232A354023AA354012003
:102180001EE023689A699206E5D51022DA61236879
:102190002025DD612000FFF7A5FF22685168094B6B
:1021A0000B405360626C0423134363644123E55482
:1021B00000234222A354023AA354012000E000204D
:1021C00070BDC04600E800FE70B504000D001600AA
:1021D0001CE0320029002000FFF7ACFF00281BD1D3
:1021E0006B1C13D0FFF766FF801B854201D3002DC7
:1021F0000CD1636C2022134363644123E254002317
:102200002232A354023AA354012006E023689B69BA
:102210009B07DED5002000E0012070BDF8B5050069
:102220000F0016001C0016E0631C14D0FFF742FFDD
:10223000069BC01A844201D3002C0CD16B6C202267
:1022400013436B644123EA5400232232AB54023A15
:10225000AB54012009E02B689B693A009A431300B4
:102260005A425341B342DFD00020F8BD70B505009B
:102270000C0016001AE0320021002800FFF75AFF78
:10228000002819D1FFF716FF801B844201D3002CD0
:102290000CD16B6C202213436B644123EA5400235E
:1022A0002232AB54023AAB54012006E02B689B6902
:1022B0009B06E0D5002000E0012070BD70B5040051
:1022C0000D00160033E0320029002000FFF732FF36
:1022D000002832D123689A69920616D59A69520766
:1022E00002D5228D002A29D12022DA61216848688E
:1022F000134B03404B60002363644121625422323C
:10230000A354023AA354012018E0FFF7D3FE801B28
:10231000854201D3002D0AD1636C202213436364EC
:102320004123E2540022013BE254012006E02368ED
:102330009B695B07C7D5002000E0012070BDC04647
:1023400000E800FE10B5041E57D04123C35C002BEB
:1023500004D100224033C25400F02AFC242241233D
:10236000E2542268136801218B4313602268244BD6
:1023700061680B40136122689168224B0B409360A7
:10238000E368012B06D1226880231B02A1680B435E
:10239000936005E0226884231B02A1680B439360CD
:1023A000E368022B03D12368802212015A6022685D
:1023B000536815490B4353602268D168114B0B4099
:1023C000D3602168226963691A43A3691B0213431E
:1023D000CB602268E369216A0B43136022681168AD
:1023E00001230B4313600023636420214122A15485
:1023F00023630132A354002000E0012010BDC04639
:10240000FFFFFFF0FF7FFFFF00800002F0B585B007
:102410000400039116001D004123C35C202B00D053
:1024200099E02033C35C012B00D196E001224023C8
:10243000C254FFF73FFE07000090192301228021BC
:1024400009022000FFF7EAFE002800D087E02122E1
:102450004123E254113A0133E2540023636466627B
:1024600065856363638D9BB2FF2B0BD9FF232385A7
:102470003F4B009380235B04EF3203992000FFF76A
:1024800041FE4DE0628D92B22285D2B2384B00936C
:1024900080239B0403992000FFF734FE40E03A00BC
:1024A0000A992000FFF790FE00285AD12368626A3B
:1024B00012789A62636A01336362638D013B9BB257
:1024C0006385238D013B9BB22385628D92B2002AE6
:1024D00026D0002B24D100970A9B002280212000C7
:1024E000FFF79CFE00283ED1638D9BB2FF2B0BD9DA
:1024F000FF2323850023009380235B04FF2203999D
:102500002000FFF7FFFD0BE0628D92B22285D2B270
:102510000023009380239B0403992000FFF7F2FD22
:10252000638D9BB2002BBAD13A000A992000FFF7C5
:102530009DFE002819D123682022DA6121684D68A8
:102540000C4B2B404B604123E25400232232A35416
:10255000023AA3540AE0022008E0022006E001202B
:1025600004E0012002E0012000E0012005B0F0BD00
:102570000020008000E800FEF0B585B00400039163
:1025800016001D004123C35C202B00D099E02033AE
:10259000C35C012B00D196E001224023C254FFF717
:1025A00089FD0700009019230122802109022000E3
:1025B000FFF734FE002800D087E022224123E254B6
:1025C000123A0133E25400236364666265856363F3
:1025D000638D9BB2FF2B0BD9FF2323853F4B0093C9
:1025E00080235B04EF3203992000FFF78BFD4DE061
:1025F000628D92B22285D2B2384B009380239B0425
:1026000003992000FFF77EFD40E03A000A99200080
:10261000FFF754FE00285AD123685B6A626A137080
:10262000636A01336362238D013B9BB22385628D14
:10263000013A92B26285628D92B2002A26D0002BB6
:1026400024D100970A9B002280212000FFF7E6FD9D
:1026500000283ED1638D9BB2FF2B0BD9FF2323852E
:102660000023009380235B04FF2203992000FFF7DF
:1026700049FD0BE0628D92B22285D2B20023009315
:1026800080239B0403992000FFF73CFD638D9BB2E0
:10269000002BBAD13A000A992000FFF7E7FD002885
:1026A00019D123682022DA6121684D680C4B2B4038
:1026B0004B604123E25400232232A354023AA35434
:1026C0000AE0022008E0022006E0012004E00120E8
:1026D00002E0012000E0012005B0F0BD00240080F0
:1026E00000E800FEF0B54123C35C202B20D120334D
:1026F000C35C012B1ED04024012303554125242215
:102700004255066832689A433260066837680A4A5A
:102710003A403260026816683143116002681168FD
:102720000B4313602023435500230355002002E090
:10273000022000E00220F0BDFFEFFFFFF0B54123D3
:10274000C35C202B1ED12033C35C012B1CD0402442
:1027500001230355412524224255066832689A43D5
:10276000326006683768094A3A400902114331600D
:10277000026811680B43136020234355002303555F
:10278000002002E0022000E00220F0BDFFF0FFFF89
:10279000F0B583B00023A9E001249C40224000D181
:1027A000A3E003254E683540013D012D11D8856811
:1027B0005F000326BE40B543CE68BE40354385600A
:1027C0004668A6434C68250901242C409C403443AC
:1027D000446003244D682C40032C08D0C4685E007C
:1027E0000325B540AC438D68B5402C43C460032439
:1027F0004D682C40022C0ED1DC080834A400275868
:1028000007251D40AD000F26AE40B7430E69AE4010
:102810003D003543255005685E0003242700B7407E
:10282000BD434F683C40B4402C430460C024A40224
:102830004D68254259D0314DAE6901273E43AE6106
:10284000AC693C400194019C9C08A51CAD002C4E39
:10285000AF5903251D40AD000F26AE40B74390266B
:10286000F605B0420AD0274EB04209D0264EB042FB
:1028700008D0264EB04207D1032606E0002604E029
:10288000012602E0022600E00526AE4035003D4369
:102890000234A4001A4EA5511D4C2568D4432600CD
:1028A0002E404F68FF0301D515432E00184D2E60B2
:1028B0006D682E0026404F68BF0301D515432E00DA
:1028C000134D6E60AD682E0026404F68FF0201D5A3
:1028D00015432E000E4DAE60ED682C404E68B602DA
:1028E00001D52A4314000A4AD46001330A6814004F
:1028F000DC4000D050E703B0F0BDC04600100240FD
:10290000000001400004004800080048000C004896
:1029100000040140002A01D0816100E0816270471B
:1029200070B5002811DB8208144DC0329200545952
:1029300003231840C000FF26330083409C438901D5
:10294000314081402143515116E0C0B20F23034072
:10295000083B9B0806339B00094A944663445A6827
:1029600003242040C000FC3425008540AA4389018F
:10297000214081401143596070BDC04600E100E034
:1029800000ED00E001380A4B98420FD8094A506028
:1029900009490B6A1B021B0AC020000603430B6295
:1029A0000023936007331360002000E0012070478C
:1029B000FFFFFF0010E000E000ED00E0114B1A689F
:1029C00001210A431A6058680F4A02405A60186889
:1029D0000E4A02401A6018680D4A02401A60586890
:1029E0000C4A02405A60DA6A0F208243DA62186B9E
:1029F000094A02401A635A6B8A435A6300229A605A
:102A00007047C046001002400CB8FF08FFFFF6FEFA
:102A1000FFFFFBFFFFFFC0FFECFEFFFFF0B58BB039
:102A20001422002105A800F024FD434B596980229F
:102A300012031143596159690A400092009A596979
:102A40008022D2031143596159690A400192019AC7
:102A50005969802292021143596159690A400292D0
:102A6000029A59698022D2021143596159690A4078
:102A70000392039A596980225203114359615B6999
:102A80001A400492049B002206212C48FFF742FFC3
:102A900080267600012231009020C005FFF73AFF22
:102AA000274B0593032506950024079405A925487F
:102AB000FFF76EFE244B05930695079405A9902019
:102AC000C005FFF765FEF02305930695079405A959
:102AD0001E48FFF75DFE1E4B05930695079405A95A
:102AE0001648FFF755FE062305931127069707940E
:102AF000089505A91148FFF74BFE05960697079420
:102B0000089405A99020C005FFF742FE98231B02F8
:102B1000059306940123079305A99020C005FFF7AC
:102B200037FE042305930695079405A90948FFF786
:102B30002FFE0BB0F0BDC04600100240000400485C
:102B4000FFFF000000080048FF06000000140048D6
:102B5000F9F30000000C004810B51248124B036056
:102B6000124B4360002383600122C2600361436112
:102B70008361C3610362FFF7E5FB002801D0FEF724
:102B800077FE00210748FFF7ADFD002801D0FEF7D2
:102B90006FFE00210348FFF7D1FD002801D0FEF7AA
:102BA00067FE10BD2C00002000580040895E801098
:102BB00010B588B004001422002103A800F059FCCD
:102BC0002268134B9A4220D1124C62698023DB02A7
:102BD0001A436261626913400193019BC0231B0188
:102BE000039312230493113B059303220692079348
:102BF00003A90948FFF7CCFDE2698023DB031A43F0
:102C0000E261E26913400293029B08B010BDC04626
:102C100000580040001002400004004810B50B4C62
:102C2000012204212000FFF775FE0122022120006D
:102C3000FFF770FE002204212000FFF76BFE002248
:102C400002212000FFF766FE10BDC04600040048C8
:102C500010B5084C002204212000FFF75BFE012282
:102C600002212000FFF756FE012204212000FFF779
:102C700051FE10BD0004004810B5084C012204218B
:102C80002000FFF747FE012202212000FFF742FE4D
:102C9000002202212000FFF73DFE10BD0004004885
:102CA00070B5050000241CE06BB2002B05DA012290
:102CB00004210D48FFF72EFE04E0002204210A48FB
:102CC000FFF728FE084E012202213000FFF722FE06
:102CD000002202213000FFF71DFE6D00EDB201342D
:102CE000E4B2072CE0D970BD0004004870B50400C0
:102CF0000D00FFF793FF7820FFF7D2FFFFF7BCFF2F
:102D0000002D03D04020FFF7CBFF02E00020FFF7AB
:102D1000C7FFFFF7B1FF2000FFF7C2FFFFF7ACFFCF
:102D2000FFF796FF70BDC04670B5002531E0280062
:102D30005038C0B20021FFF7D9FF174B1878002197
:102D4000FFF7D4FF154B18781030C0B20021FFF701
:102D5000CDFFFFF763FF7820FFF7A2FFFFF78CFF9F
:102D60004020FFF79DFFFFF787FF00240BE0620084
:102D7000121953000A4AD318585DFFF791FFFFF765
:102D80007BFF0134E4B2572CF1D9FFF761FF013525
:102D9000EDB2052DCBD970BD78000020EC020020EB
:102DA0007C00002010B500200EE05900C9184A0030
:102DB00008498A18002111540133DBB200E00023D6
:102DC000572BF2D90130C0B20528F8D9FFF7ACFF74
:102DD00010BDC0467C00002070B5CC080723194008
:102DE000063B8B40DBB2002A08D00A4D4200161881
:102DF000710069180A5D13430B550AE0054D460042
:102E00003218510069180A5DD243D2B21343DB4332
:102E10000B5570BD7C000020F0B55F4656464D4610
:102E20004446F0B485B0039002919A460EAB1B78ED
:102E300001935346082B0DD0D808072351460B4069
:102E400019004B1E99414318514649084B43DBB2C8
:102E5000984601E006239846203AD3B29B46039F4A
:102E6000002399465AE05346082B08D15B465A0086
:102E70005A4453002E4AD3184A469E5C14E05346E7
:102E80000C2B08D15B465A005A449300294AD318A8
:102E90004A469E5C08E05346102B08D15B461B0156
:102EA000254AD3184A469E5C029D002420E05346E2
:102EB000182B35D15B46DA005A4493001F4AD318C9
:102EC0004A469E5CF0E7F30705D5019A29003800D1
:102ED000FFF782FF07E0019A53425A41D2B229001C
:102EE0003800FFF779FF76080135EDB20134E4B21E
:102EF000072CE8D90137FFB25346082B0AD0039BB1
:102F0000FB1A52465208934204D1029B0833DBB2AB
:102F10000293039F4B460133DBB29946C145A2D3CE
:102F200005B03CBC90469946A246AB46F0BDC046B3
:102F3000B0420008D84400084C4900085435000845
:102F4000F0B585B00400039116001F000AAB1D7890
:102F50000EE000953B0003992000FFF75DFF082F6E
:102F600002D10634E4B202E07B08E418E4B2013690
:102F700032781300203BDBB25E2BEAD905B0F0BDFE
:102F8000012201E0424319004B1EDBB20029F9D1B6
:102F900010007047F0B557464646C0B485B080462D
:102FA000029103921D000CAB1F780DAB1B789A4663
:102FB000082F01D0002600E0022600242BE0291B68
:102FC0000139C9B20A20FFF7DBFF01000398FDF7C2
:102FD000A7F80A21FDF72AF9C9B200290CD178080F
:102FE000301860434044C0B2534600933B00302247
:102FF0000299FFF711FF0CE03031CAB2780830189F
:1030000060434044C0B2534600933B000299FFF72F
:1030100003FF0134E4B2AC42D1D305B00CBC9046FE
:103020009A46F0BD10B50021AE20FFF75FFE0021EB
:103030000020FFF75BFE00211020FFF757FE002164
:103040004020FFF753FE0021B020FFF74FFE002184
:103050008120FFF74BFE00218020FFF747FE002173
:103060008220FFF743FE00210020FFF73FFE0021F2
:103070002320FFF73BFE00210120FFF737FE002150
:10308000A020FFF733FE0021A220FFF72FFE002132
:10309000A420FFF72BFE0021A620FFF727FE00212A
:1030A000A820FFF723FE00212F20FFF71FFE00219D
:1030B000C020FFF71BFE0021D320FFF717FE0021E1
:1030C0003820FFF713FE0021D520FFF70FFE002167
:1030D0005020FFF70BFE0021D920FFF707FE00214B
:1030E0002220FFF703FE0021DB20FFF7FFFD002178
:1030F0003520FFF7FBFD0021AD20FFF7F7FD002194
:103100008B20FFF7F3FD00213320FFF7EFFDFFF7E2
:1031100049FE0021AF20FFF7E9FD10BD00B585B0E5
:1031200003AA80235B421843107051702133FF3390
:1031300000939E3B52210248FFF768F905B000BD9D
:103140002C00002070B586B00F226A4417246C440E
:1031500000232370803B18431070094DA026009671
:10316000813352212800FFF751F9009601232200F4
:1031700052212800FFF700FA207806B070BDC04643
:103180002C00002010B5012804D100210630FFF7E3
:10319000C5FF11E0022804D101210530FFF7BEFF71
:1031A0000AE0402804D102213938FFF7B7FF03E0D5
:1031B00003210720FFF7B2FF10BDC046F8B501207C
:1031C000FFF7E0FF0B210020FFF7A8FF1420FFF717
:1031D000B9FF05001520FFF7B5FF04001620FFF723
:1031E000B1FF06001720FFF7ADFF24026519ACB24E
:1031F0000502AE19B5B2002C00D1AAE021002800CA
:10320000FCF78EFF80B2FEF7DDFA06000F00534A8E
:10321000534BFDF727F8002820D02000FEF790FA46
:103220004E4A504BFDF788FC06000F002800FEF7C1
:1032300087FA4D4A4D4BFDF77FFC02000B00300032
:103240003900FDF7F3FE4A4A4A4BFDF775FC4A4A3E
:103250004A4BFDF74DF8FDF72DF87DE0484A494B04
:1032600030003900FCF7FEFF002820D02000FEF7D8
:1032700067FA454A454BFDF75FFC06000F00280042
:10328000FEF75EFA424A434BFDF756FC02000B0084
:1032900030003900FDF7CAFE354A364BFDF74CFCCD
:1032A000354A364BFDF724F8FDF704F854E0364A6A
:1032B000394B30003900FCF7D5FF002820D0200022
:1032C000FEF73EFA354A364BFDF736FC06000F0096
:1032D0002800FEF735FA334A334BFDF72DFC020088
:1032E0000B0030003900FDF7A1FE214A214BFDF70C
:1032F00023FC214A214BFCF7FBFFFCF7DBFF2BE013
:103300002A4A2B4B30003900FCF7ACFF002822D0B2
:103310002000FEF715FA274A274BFDF70DFC0600A3
:103320000F002800FEF70CFA0C4A244BFDF704FCB2
:1033300002000B0030003900FDF778FE0C4A0D4BFF
:10334000FDF7FAFB0C4A0D4BFCF7D2FFFCF7B2FF7E
:1033500002E0002000E00020F8BDC046A4703D0A55
:10336000D7A3D03FD7A3F43F77BE9F1A2FDD0540E8
:103370006666666666A659404DF38E5374A459403E
:103380009A9999999999E13F713D0AD7A370E93FBC
:10339000B0726891ED7CEB3FA370F13F52B81E858F
:1033A000EB51E03F14AE47E17A14D63F0AD7A37041
:1033B0003D0A0140448B6CE7FBA9D13FD7A3C03F36
:1033C0000D4885460D480E490E4A002302E0D458A8
:1033D000C4500433C4188C42F9D30B4A0B4C00235D
:1033E00001E013600432A242FBD3FFF7E7FA00F0DA
:1033F00011F8FEF78DFAFEE7002000200000002003
:103400000C000020444F00080C000020F0020020B7
:10341000FEE700000E4B70B500251E000D4CE41AAF
:10342000A410A54204D0AB00F35898470135F8E743
:1034300000F028F8084B00251E00084CE41AA410E0
:10344000A54204D0AB00F35898470135F8E770BDAA
:103450003C4F00083C4F00083C4F0008404F00081C
:10346000002310B59A4203D0CC5CC4540133F9E771
:1034700010BD03008218934202D019700133FAE79D
:1034800070470000F8B5C046F8BC08BC9E467047BF
:0C349000F8B5C046F8BC08BC9E4670476A
:10349C0002030405060708090A0B0C0D0E0F101089
:1034AC000102030405060708090A0B0C0D0E0F1088
:1034BC00E0040008AE030008B4040008A4030008EC
:1034CC00B4040008BE040008B4040008A4030008F7
:1034DC00AE030008AE030008BE040008A4030008F5
:1034EC009A0300089A0300089A03000810070008C2
:1034FC00280D0008E80B0008E80B0008E60B000894
:10350C00000D0008000D0008F20C0008E60B000886
:10351C00000D0008F20C0008000D0008E60B000876
:10352C00080D0008080D0008080D0008080F000819
:10353C00424831373330000000000000000000002A
:10354C000102030406070809000000000000000047
:10355C00000000000000000000000000000000005F
:10356C00000000000000000000000000000000004F
:10357C0000F0F0F0000000000000000000017F01EE
:10358C000000000000000000001C1C1C00000000DB
:10359C0000008060301C8C60301C0C0000000000AF
:1035AC00000000000000000000000000000000000F
:1035BC0000000000000000E00000000000E000003F
:1035CC000086E69F86868686E69F860000011F01A0
:1035DC00010101011F010100000080C06020F820E2
:1035EC00E0C00000000003070C18FF70E181000030
:1035FC000000070F10107F100F0700008060206084
:10360C0080000000E02000000F3020309F70DC377D
:10361C001030C0000000100E03000718101807002F
:10362C000000C02020E0C0000000000080E01F3837
:10363C00E88703C43C040000070F1810100B070D9B
:10364C001010080000808C4C3800000000000000B6
:10365C00000000000000000000000000000000005E
:10366C00000000000000000000000000000080E0EE
:10367C00300804000000000000FEFF010000000004
:10368C00000000000000030F182040000004083068
:10369C00E0800000000000000000000001FFFE00C0
:1036AC0000000000004020180F0300000000000084
:1036BC00000000000000C000000000000042666630
:1036CC003C18FF183C666642000000000000030036
:1036DC00000000000000000000008000000000005E
:1036EC00001010101010FF1010101010000000002F
:1036FC0000000300000000000000000000000000BB
:10370C0000000000000000000000000000000000AD
:10371C0000808C4C3800000000000000000000000D
:10372C00000000000000000000101010101010101D
:10373C00101010000000000000000000000000004D
:10374C00000000000000000000000000000000006D
:10375C00000000000000000000001C1C1C00000009
:10376C00000000000000000000000000E0380C0029
:10377C000000000080701C03000000000060380E88
:10378C000100000000000000000080C060202060EC
:10379C00C080000000FEFF010000000001FFFE00E1
:1037AC000001070E181010180E0701000000808091
:1037BC0080C0E000000000000000000000FFFF00DF
:1037CC000000000000001010101F1F10101000004F
:1037DC000080402020202060C080000000030300F7
:1037EC00804020381F070000001C1A1918181818E0
:1037FC00181F00000080C020202060C08000000046
:10380C00000303001010182FE780000000070F10B2
:10381C00101010180F070000000000000000C0E09E
:10382C00F000000000C0B088868180FFFF8080001F
:10383C00000000000010101F1F1010000000E060BE
:10384C00606060606060000000003F1008080818AD
:10385C00F0E0000000070B101010101C0F0300000C
:10386C00000080C040202020E0C0000000FCFF21B0
:10387C001008080818F0E0000001070C18101010D0
:10388C00080F03000000C0E06060606060E0600052
:10389C00000003000000E01807000000000000001A
:1038AC00001F1F00000000000080C06020202020AE
:1038BC0060C080000087EF2C1818303068CF830070
:1038CC0000070F0810101010180F07000000C0C0E0
:1038DC0020202020C0800000001F3F60404040207E
:1038EC0010FFFE0000000C1C101010080F0300004D
:1038FC0000000000000000000000000000000000BC
:10390C00000E0E0E0000000000000000001C1C1C2D
:10391C00000000000000000000000000000000009B
:10392C0000000000000C0C00000000000000000073
:10393C00005838000000000000000000000000806B
:10394C0040201000000010284482010000000000FC
:10395C00000000000000010204081000000000003C
:10396C0000000000000000000084848484848484AF
:10397C0084848400000000000000000000000000AF
:10398C00000010204080000000000000000000003B
:10399C0000000182442810000000100804020100FD
:1039AC000000000000C020201010101030E0C000FB
:1039BC000003030000F010080C07030000000000D7
:1039CC001C1C1C0000000000000000C040602020F7
:1039DC002040C00000FCFF01F00E03C1FE03807FFD
:1039EC000001070E0811111011090402000000005B
:1039FC0080E0E000000000000000807C4340477F36
:103A0C00F880000010181F1000000000131F1C107D
:103A1C0020E0E02020202060C080000000FFFF108C
:103A2C00101010182FE78000101F1F10101010100E
:103A3C00180F0700000080C0402020202060E0000C
:103A4C0000FCFF0100000000000001000001070E57
:103A5C00181010100804030020E0E0202020204063
:103A6C00C080000000FFFF000000000001FFFE000E
:103A7C00101F1F10101018080E07010020E0E02086
:103A8C00202020202060800000FFFF101010107CF0
:103A9C0000000000101F1F1010101010101806004E
:103AAC0020E0E020202020206060800000FFFF103C
:103ABC001010107C00000100101F1F1000000000EF
:103ACC0000000000000080C06020202040E00000CA
:103ADC0000FCFF0100004040C0C140400001070E47
:103AEC00181010100F0F000020E0E0200000000064
:103AFC0020E0E02000FFFF101010101010FFFF005E
:103B0C00101F1F1000000000101F1F1000002020AD
:103B1C0020E0E020202000000000000000FFFF005B
:103B2C000000000000001010101F1F1010100000EB
:103B3C0000000000202020E0E020202000000000F9
:103B4C00000000FFFF0000000060E0808080C07F6C
:103B5C003F00000020E0E020000020A060202000BA
:103B6C0000FFFF30187CE3C000000000101F1F1086
:103B7C00000001131F1C181020E0E02000000000C2
:103B8C000000000000FFFF0000000000000000002B
:103B9C00101F1F10101010101018060020E0E0E08D
:103BAC0000000000E0E0E02000FF013FFEC0E01E4E
:103BBC0001FFFF00101F1000031F0300101F1F1038
:103BCC0020E0E0C0000000000020E02000FF000327
:103BDC00071C78E08000FF00101F100000000000A0
:103BEC00030F1F00000080C060202060C080000018
:103BFC0000FEFF010000000000FFFE000001070EA8
:103C0C00181010180C07010020E0E02020202020C4
:103C1C0060C0800000FFFF2020202020301F0F00FC
:103C2C00101F1F100000000000000000000080C0EA
:103C3C0060202060C080000000FEFF01000000003A
:103C4C0000FFFE000001070E1111133C7C672100E0
:103C5C0020E0E0202020202060C0800000FFFF102A
:103C6C001030F0D0080F0700101F1F1000000003C9
:103C7C000F1C10100080C060202020204040E0006D
:103C8C0000070F0C1818303060E08100001F0C0882
:103C9C0010101010180F07008060202020E0E0208A
:103CAC00202060800100000000FFFF0000000001E8
:103CBC0000000000101F1F100000000020E0E0209A
:103CCC00000000000020E02000FFFF0000000000CA
:103CDC000000FF0000070F1810101010100807004C
:103CEC002060E0E02000000020E060200000077F62
:103CFC00F88000807C03000000000000071F1C07F8
:103D0C000000000020E0E02000E0E0200020E020A7
:103D1C000007FFF8E01FFFFCE01F00000000031F7E
:103D2C000300011F03000000002060E0A000002041
:103D3C00E0602000000000038F7CF8C6010000004A
:103D4C000010181E130001171F1810002060E0E06F
:103D5C002000000020E06020000001073EF8E01881
:103D6C000700000000000010101F1F1010000000C2
:103D7C0000806020202020A0E0E020000000000057
:103D8C00C0F03E0F0300000000101C1F1710101095
:103D9C00101806000000000000FC040404040400D9
:103DAC000000000000FF0000000000000000000008
:103DBC00007F404040404000000010E00000000048
:103DCC000000000000000000031C608000000000E8
:103DDC0000000000000000030C70800000000404D0
:103DEC00040404FC0000000000000000000000FFC0
:103DFC0000000000000040404040407F00000000F8
:103E0C0000000010080C040C08100000000000005A
:103E1C000000000000000000000000000000000096
:103E2C000000000000000000000000000000000086
:103E3C000000000000000000000000008080808076
:103E4C00808080808080808000000004040808004E
:103E5C000000000000000000000000000000000056
:103E6C000000000000000000000000000000000046
:103E7C000000000000000000000098D844642424D6
:103E8C00FCF80000000F1F18101010081F1F10184E
:103E9C000020E0F000000000000000000000FFFF28
:103EAC00180804040CF8F00000001F0F1810101074
:103EBC00180F0300000000000000000000000000CC
:103ECC0000E0F8180404043C3800000000030F0C58
:103EDC001010101008060000000000000000002068
:103EEC00E0F0000000E0F81C04040408FFFF0000F0
:103EFC0000030F18101010081F0F0800000000001E
:103F0C0000000000000000000000E0F848444444B9
:103F1C004C7870000000030F0C18101010080400EF
:103F2C000000000080C0602020E0C00000040404F9
:103F3C00FFFF040404040000000010101F1F1010E9
:103F4C001000000000000000000000000000000055
:103F5C00000070F88C04048CF874040C007076CF9C
:103F6C008D8D8D89C87870000020E0F00000000075
:103F7C00000000000000FFFF08040404FCF800002F
:103F8C0000101F1F100000101F1F10000000000069
:103F9C0000606000000000000000040404FCFC0051
:103FAC000000000000001010101F1F101010000067
:103FBC000000000000000060600000000000000035
:103FCC00040404FCFC0000000000C0C08080C07F22
:103FDC003F0000000020E0F00000000000000000A6
:103FEC000000FFFF80C0F41C0404000000101F1F21
:103FFC001100031F1C1010000000202020E0F00016
:10400C00000000000000000000FFFF0000000000A6
:10401C0000001010101F1F101010000000000000F6
:10402C00000000000000000004FCFC0804FCFC087C
:10403C0004FCFC00101F1F10001F1F10001F1F107E
:10404C000000000000000000000000000004FCFC68
:10405C0008080404FCF8000000101F1F10000010DA
:10406C001F1F1000000000000000000000000000F6
:10407C0000E0F0180C04040C18F0E00000030F0C26
:10408C00101010100C0F03000000000000000000C6
:10409C00000000000004FCFC080404040CF8F00010
:1040AC000080FFFF889010101C0F03000000000020
:1040BC00000000000000000000E0F81C04040408EC
:1040CC00F8FC000000030F1810109088FFFF800010
:1040DC00000000000000000000000000040404FCCC
:1040EC00FC100804040C0C001010101F1F101010F2
:1040FC0000000000000000000000000000000000B4
:10410C0000003078CCC48484840C1C0000001E1881
:10411C0010101011190F06000000000000C0000064
:10412C000000000000040404FFFF0404040000006D
:10413C00000000000F1F1010100C00000000000009
:10414C0000000000000000000004FCFE0000000461
:10415C00FCFE000000000F1F181010081F0F0800B5
:10416C0000000000000000000000000000040C3CF7
:10417C00FCC40000C43C0C0400000000010F1E0E27
:10418C000100000000000000000000000000000022
:10419C00043CFCC400E47CFC84807C040000071F0D
:1041AC00070000071F0700000000000000000000CF
:1041BC00000000000004041C7CE4C0341C04040057
:1041CC000010101C1601131F1C181000000000001A
:1041DC00000000000000000000040C3CFCC400C403
:1041EC003C0404000000C080C1370E010000000038
:1041FC0000000000000000000000000000001C0493
:10420C0004C4F47C1C0400000000101C1F171110C7
:10421C0010180E0000000000000000F80C04000054
:10422C0000000000001028EF00000000000000005B
:10423C000000003F60400000000000000000FF0094
:10424C0000000000000000000000FF000000000063
:10425C00000000000000FF00000000000000040C43
:10426C00F80000000000000000000000EF28100023
:10427C0000000000000040603F0000000000000053
:10428C00001806020204081020203008000000006C
:10429C000000000000000000000000000000000012
:1042AC00000000000000000000000000002F0000D3
:1042BC0000000700070000147F147F1400242A7FDD
:1042CC002A1200626408132300364955225000005C
:1042DC000503000000001C224100000041221C00CC
:1042EC000014083E08140008083E0808000000A04E
:1042FC00600000080808080800006060000000204A
:10430C0010080402003E5149453E0000427F400027
:10431C00004261514946002141454B3100181412AD
:10432C007F10002745454539003C4A49493000017A
:10433C007109050300364949493600064949291EC9
:10434C00000036360000000056360000000814222B
:10435C00410000141414141400004122140800022B
:10436C000151090600324959513E007C1211127C50
:10437C00007F49494936003E41414122007F41417D
:10438C00221C007F49494941007F09090901003E6F
:10439C004149497A007F0808087F0000417F4100AD
:1043AC00002040413F01007F08142241007F404023
:1043BC004040007F020C027F007F0408107F003E0B
:1043CC004141413E007F09090906003E4151215EF1
:1043DC00007F091929460046494949310001017FEE
:1043EC000101003F4040403F001F2040201F003F84
:1043FC004038403F00631408146300070870080736
:10440C0000615149454300007F41410000552A5548
:10441C002A55000041417F000004020102040040C3
:10442C0040404040000001020400002054545478E5
:10443C00007F484444380038444444200038444405
:10444C00487F00385454541800087E0901020018A3
:10445C00A4A4A47C007F080404780000447D4000E0
:10446C00004080847D00007F102844000000417FC4
:10447C004000007C04180478007C080404780038A0
:10448C004444443800FC242424180018242418FC28
:10449C00007C0804040800485454542000043F4491
:1044AC004020003C4040207C001C2040201C003C54
:1044BC004030403C004428102844001CA0A0A07CA4
:1044CC00004464544C4414141414141400000000DC
:1044DC0000000000000000000000FC0000000000D4
:1044EC0002000000000C020C0200000000000000A2
:1044FC0090D0BCD0BC900003000300001824FE44F4
:10450C008C000302070201001824D8B04C80000371
:10451C0000010201C038E438E0000102020102028D
:10452C00080600000000000000000000000000F879
:10453C000402000000010204000204F80000000460
:10454C00020100009060F860900000000100000083
:10455C002020FC20200000000100000000000000D2
:10456C000000080600000000202020202000000091
:10457C00000000000000000000000002000000002D
:10458C000080601C0200040300000000F804040416
:10459C00F8000102020201000008FC000000000209
:1045AC0003020000188444241800030202020200D3
:1045BC0008042424D80001020202010040B088FC47
:1045CC0080000000000302003C242424C4000102EB
:1045DC0002020100F824242CC00001020202010096
:1045EC000C04E41C0400000003000000D824242464
:1045FC00D80001020202010038444444F8000003D0
:10460C000202010000001000000000000200000087
:10461C000000200000000000060000000020508870
:10462C0004020000000001029090909090000000A5
:10463C00000000000002048850200002010000006D
:10464C001804C4241800000002000000F804E494CC
:10465C00F80001020202020000E09CF0800002035C
:10466C000000030204FC2424D8000203020201000F
:10467C00F80404040C0001020202010004FC04040E
:10468C00F80002030202010004FC24740C00020373
:10469C000202030004FC24740C000203020000005C
:1046AC00F0080444CC4000010202010004FC20206C
:1046BC00FC040203000003020404FC0404000202D4
:1046CC0003020200000404FC0404060404030000BA
:1046DC0004FC24D00C0402030200030204FC0400BA
:1046EC000000020302020203FC3CC03CFC0003007D
:1046FC000300030004FC30C4FC04020302000300AA
:10470C00F8040404F80001020202010004FC242451
:10471C001800020302000000F8848404F80001026F
:10472C000207050004FC2464980002030200030243
:10473C00182424448C000302020201000C04FC0423
:10474C000C0000020302000004FC0000FC04000149
:10475C0002020100047C80E01C0400000300000045
:10476C001CE03CE01C00000300030000049C609C67
:10477C000400020300030200041CE01C04000002FD
:10478C00030200000C84641C0400020302020300F8
:10479C000000FE020200000007040400000E30C0FE
:1047AC000000000000010200000202FE00000004F4
:1047BC0004070000000402040000000000000000D8
:1047CC0000000000000008080808080800000200AB
:1047DC0000000000000000000040A0A0C00000018C
:1047EC000202030204FC2020C000000302020100AC
:1047FC0000C02020600000010202020000C0202442
:10480C00FC0000010202030200C0A0A0C0000001D5
:10481C00020202000020F824240400020302020019
:10482C000040A0A0602000070A0A0A0404FC202013
:10483C00C0000203020003020020E400000000029A
:10484C0003020000000020E4000008080807000034
:10485C0004FC80E020200203020003020404FC009C
:10486C000000020203020200E020E020C00003006E
:10487C000300030020E02020C0000203020003021A
:10488C0000C02020C00000010202010020E0202016
:10489C00C000080F0A02010000C02020E000000147
:1048AC00020A0F0820E04020200002030200000052
:1048BC000060A0A020000002020203000020F820EB
:1048CC00000000000102020020E00020E0000001D6
:1048DC000202030220E0208060200000030100009F
:1048EC006080E080600000030003000020608060B6
:1048FC00200002030003020020E020806020080852
:10490C00070100000020A06020000002030202004A
:10491C00000020DE0200000000070400000000FF81
:10492C0000000000000F00000002DE200000000468
:10493C000700000002010204040200000000000055
:10494C00000000000000000000000000000000005B
:10495C00000000F8000000000000003330000000F0
:10496C0000100C06100C06000000000000000000F7
:10497C0040C07840C0784000043F04043F04040069
:10498C00007088FC08300000001820FF211E000079
:10499C00F008F000E018000000211C031E211E008E
:1049AC0000F00888700000001E2123241927211014
:1049BC0010160E00000000000000000000000000B7
:1049CC00000000E01804020000000007182040005E
:1049DC0000020418E000000000402018070000004E
:1049EC00404080F0804040000202010F01020200B2
:1049FC00000000F0000000000101011F0101010096
:104A0C00000000000000000080B0700000000000FA
:104A1C000000000000000000000101010101010183
:104A2C00000000000000000000303000000000001A
:104A3C0000000000806018040060180601000000EF
:104A4C0000E010080810E000000F102020100F00EC
:104A5C00001010F8000000000020203F2020000073
:104A6C0000700808088870000030282422213000CB
:104A7C0000300888884830000018202020110E00D3
:104A8C000000C02010F8000000070424243F24007C
:104A9C0000F80888880808000019212020110E0051
:104AAC0000E0108888180000000F112020110E0063
:104ABC0000380808C83808000000003F000000005B
:104ACC000070880808887000001C222121221C001C
:104ADC0000E010080810E0000000312222110F0045
:104AEC00000000C0C00000000000003030000000DA
:104AFC00000000800000000000008060000000004A
:104B0C000000804020100800000102040810200062
:104B1C0040404040404040000404040404040400AD
:104B2C000008102040800000002010080402010042
:104B3C00007048080808F000000000303601000042
:104B4C00C030C828E810E0000718272423140B00F5
:104B5C000000C038E0000000203C2302022738206F
:104B6C0008F8888888700000203F202020110E0053
:104B7C00C03008080808380007182020201008004A
:104B8C0008F808080810E000203F202020100F0033
:104B9C0008F88888E8081000203F202023201800FF
:104BAC0008F88888E8081000203F20000300000067
:104BBC00C03008080838000007182020221E020008
:104BCC0008F808000008F808203F210101213F20C7
:104BDC00000808F8080800000020203F20200000F2
:104BEC0000000808F8080800C08080807F000000E2
:104BFC0008F888C028180800203F2001263820001B
:104C0C0008F8080000000000203F20202020300081
:104C1C0008F8F800F8F80800203F003F003F20009B
:104C2C0008F830C00008F808203F200007183F00A3
:104C3C00E01008080810E0000F10202020100F00D2
:104C4C0008F808080808F000203F210101010000C5
:104C5C00E01008080810E0000F18242438504F000A
:104C6C0008F8888888887000203F2000030C3020CA
:104C7C0000708808080838000038202121221C0008
:104C8C00180808F8080818000000203F2000000051
:104C9C0008F808000008F808001F202020201F003A
:104CAC000878880000C83808000007380E0100009A
:104CBC00F80800F80008F800033C0700073C030064
:104CCC00081868808068180820302C03032C3020CA
:104CDC000838C800C83808000000203F2000000039
:104CEC0010080808C8380800203826212020180091
:104CFC00000000FE020202000000007F4040400065
:104D0C00000C30C000000000000000010638C0009C
:104D1C0000020202FE000000004040407F00000044
:104D2C000000040202020400000000000000000069
:104D3C000000000000000000808080808080808067
:104D4C00000202040000000000000000000000004F
:104D5C0000008080808000000019242222223F2045
:104D6C0008F8008080000000003F112020110E0088
:104D7C000000008080800000000E11202020110017
:104D8C00000000808088F800000E112020103F20C9
:104D9C000000808080800000001F2222222213004D
:104DAC00008080F0888888180020203F2020000098
:104DBC000000808080808000006B9494949360004D
:104DCC0008F8008080800000203F210000203F2058
:104DDC0000809898000000000020203F2020000058
:104DEC00000000809898000000C08080807F000048
:104DFC0008F8000080808000203F24022D30200025
:104E0C00000808F8000000000020203F20200000CF
:104E1C008080808080808000203F20003F20003FE9
:104E2C008080008080800000203F210000203F20F7
:104E3C000000808080800000001F202020201F00A8
:104E4C00808000808000000080FFA12020110E00D7
:104E5C000000008080808000000E112020A0FF80C8
:104E6C00808080008080800020203F212000010075
:104E7C0000008080808080000033242424241900CA
:104E8C00008080E0808000000000001F20200000D7
:104E9C008080000000808000001F202020103F2018
:104EAC00808080000080808000010E3008060100A8
:104EBC0080800080008080800F300C030C300F004D
:104ECC0000808000808080000020312E0E31200078
:104EDC00808080000080808080818E7018060100A8
:104EEC0000808080808080000021302C22213000C6
:104EFC0000000000807C020200000000003F4040E7
:104F0C0000000000FF00000000000000FF00000097
:104F1C000002027C800000000040403F00000000C6
:104F2C000006010102020404000000000000000061
:044F3C00E900000880
:044F4000C1000008A4
:0C4F4400040000000100000000127A00D0
:04000005080033C1FB
:00000001FF
